{
  "_format": "hh-sol-artifact-1",
  "contractName": "Torogoz",
  "sourceName": "contracts/torogoz.sol",
  "abi": [
    {
      "inputs": [],
      "stateMutability": "nonpayable",
      "type": "constructor"
    },
    {
      "inputs": [],
      "name": "AccessControlBadConfirmation",
      "type": "error"
    },
    {
      "inputs": [
        {
          "internalType": "address",
          "name": "account",
          "type": "address"
        },
        {
          "internalType": "bytes32",
          "name": "neededRole",
          "type": "bytes32"
        }
      ],
      "name": "AccessControlUnauthorizedAccount",
      "type": "error"
    },
    {
      "anonymous": false,
      "inputs": [
        {
          "indexed": true,
          "internalType": "address",
          "name": "recipient",
          "type": "address"
        },
        {
          "indexed": false,
          "internalType": "string",
          "name": "courseName",
          "type": "string"
        },
        {
          "indexed": false,
          "internalType": "string",
          "name": "institutionName",
          "type": "string"
        },
        {
          "indexed": false,
          "internalType": "string",
          "name": "issueDate",
          "type": "string"
        }
      ],
      "name": "CredentialIssued",
      "type": "event"
    },
    {
      "anonymous": false,
      "inputs": [
        {
          "indexed": true,
          "internalType": "bytes32",
          "name": "credentialHash",
          "type": "bytes32"
        }
      ],
      "name": "CredentialRevoked",
      "type": "event"
    },
    {
      "anonymous": false,
      "inputs": [
        {
          "indexed": true,
          "internalType": "address",
          "name": "account",
          "type": "address"
        }
      ],
      "name": "IssuerAdded",
      "type": "event"
    },
    {
      "anonymous": false,
      "inputs": [
        {
          "indexed": true,
          "internalType": "address",
          "name": "account",
          "type": "address"
        }
      ],
      "name": "IssuerRevoked",
      "type": "event"
    },
    {
      "anonymous": false,
      "inputs": [
        {
          "indexed": true,
          "internalType": "bytes32",
          "name": "role",
          "type": "bytes32"
        },
        {
          "indexed": true,
          "internalType": "bytes32",
          "name": "previousAdminRole",
          "type": "bytes32"
        },
        {
          "indexed": true,
          "internalType": "bytes32",
          "name": "newAdminRole",
          "type": "bytes32"
        }
      ],
      "name": "RoleAdminChanged",
      "type": "event"
    },
    {
      "anonymous": false,
      "inputs": [
        {
          "indexed": true,
          "internalType": "bytes32",
          "name": "role",
          "type": "bytes32"
        },
        {
          "indexed": true,
          "internalType": "address",
          "name": "account",
          "type": "address"
        },
        {
          "indexed": true,
          "internalType": "address",
          "name": "sender",
          "type": "address"
        }
      ],
      "name": "RoleGranted",
      "type": "event"
    },
    {
      "anonymous": false,
      "inputs": [
        {
          "indexed": true,
          "internalType": "bytes32",
          "name": "role",
          "type": "bytes32"
        },
        {
          "indexed": true,
          "internalType": "address",
          "name": "account",
          "type": "address"
        },
        {
          "indexed": true,
          "internalType": "address",
          "name": "sender",
          "type": "address"
        }
      ],
      "name": "RoleRevoked",
      "type": "event"
    },
    {
      "inputs": [],
      "name": "DEFAULT_ADMIN_ROLE",
      "outputs": [
        {
          "internalType": "bytes32",
          "name": "",
          "type": "bytes32"
        }
      ],
      "stateMutability": "view",
      "type": "function"
    },
    {
      "inputs": [],
      "name": "ISSUER_ROLE",
      "outputs": [
        {
          "internalType": "bytes32",
          "name": "",
          "type": "bytes32"
        }
      ],
      "stateMutability": "view",
      "type": "function"
    },
    {
      "inputs": [
        {
          "internalType": "address",
          "name": "account",
          "type": "address"
        }
      ],
      "name": "addIssuer",
      "outputs": [],
      "stateMutability": "nonpayable",
      "type": "function"
    },
    {
      "inputs": [
        {
          "internalType": "bytes32",
          "name": "",
          "type": "bytes32"
        }
      ],
      "name": "credentials",
      "outputs": [
        {
          "internalType": "string",
          "name": "courseName",
          "type": "string"
        },
        {
          "internalType": "string",
          "name": "institutionName",
          "type": "string"
        },
        {
          "internalType": "string",
          "name": "issueDate",
          "type": "string"
        },
        {
          "internalType": "address",
          "name": "recipient",
          "type": "address"
        },
        {
          "internalType": "bool",
          "name": "valid",
          "type": "bool"
        }
      ],
      "stateMutability": "view",
      "type": "function"
    },
    {
      "inputs": [
        {
          "internalType": "bytes32",
          "name": "role",
          "type": "bytes32"
        }
      ],
      "name": "getRoleAdmin",
      "outputs": [
        {
          "internalType": "bytes32",
          "name": "",
          "type": "bytes32"
        }
      ],
      "stateMutability": "view",
      "type": "function"
    },
    {
      "inputs": [
        {
          "internalType": "bytes32",
          "name": "role",
          "type": "bytes32"
        },
        {
          "internalType": "address",
          "name": "account",
          "type": "address"
        }
      ],
      "name": "grantRole",
      "outputs": [],
      "stateMutability": "nonpayable",
      "type": "function"
    },
    {
      "inputs": [
        {
          "internalType": "bytes32",
          "name": "role",
          "type": "bytes32"
        },
        {
          "internalType": "address",
          "name": "account",
          "type": "address"
        }
      ],
      "name": "hasRole",
      "outputs": [
        {
          "internalType": "bool",
          "name": "",
          "type": "bool"
        }
      ],
      "stateMutability": "view",
      "type": "function"
    },
    {
      "inputs": [
        {
          "internalType": "string",
          "name": "_courseName",
          "type": "string"
        },
        {
          "internalType": "string",
          "name": "_institutionName",
          "type": "string"
        },
        {
          "internalType": "string",
          "name": "_issueDate",
          "type": "string"
        },
        {
          "internalType": "address",
          "name": "_recipient",
          "type": "address"
        }
      ],
      "name": "issueCredential",
      "outputs": [
        {
          "internalType": "bytes32",
          "name": "",
          "type": "bytes32"
        }
      ],
      "stateMutability": "nonpayable",
      "type": "function"
    },
    {
      "inputs": [
        {
          "internalType": "bytes32",
          "name": "role",
          "type": "bytes32"
        },
        {
          "internalType": "address",
          "name": "callerConfirmation",
          "type": "address"
        }
      ],
      "name": "renounceRole",
      "outputs": [],
      "stateMutability": "nonpayable",
      "type": "function"
    },
    {
      "inputs": [
        {
          "internalType": "bytes32",
          "name": "_credentialHash",
          "type": "bytes32"
        }
      ],
      "name": "revokeCredential",
      "outputs": [],
      "stateMutability": "nonpayable",
      "type": "function"
    },
    {
      "inputs": [
        {
          "internalType": "address",
          "name": "account",
          "type": "address"
        }
      ],
      "name": "revokeIssuer",
      "outputs": [],
      "stateMutability": "nonpayable",
      "type": "function"
    },
    {
      "inputs": [
        {
          "internalType": "bytes32",
          "name": "role",
          "type": "bytes32"
        },
        {
          "internalType": "address",
          "name": "account",
          "type": "address"
        }
      ],
      "name": "revokeRole",
      "outputs": [],
      "stateMutability": "nonpayable",
      "type": "function"
    },
    {
      "inputs": [
        {
          "internalType": "bytes4",
          "name": "interfaceId",
          "type": "bytes4"
        }
      ],
      "name": "supportsInterface",
      "outputs": [
        {
          "internalType": "bool",
          "name": "",
          "type": "bool"
        }
      ],
      "stateMutability": "view",
      "type": "function"
    },
    {
      "inputs": [
        {
          "internalType": "bytes32",
          "name": "_credentialHash",
          "type": "bytes32"
        }
      ],
      "name": "verifyCredential",
      "outputs": [
        {
          "internalType": "bool",
          "name": "",
          "type": "bool"
        }
      ],
      "stateMutability": "view",
      "type": "function"
    }
  ],
  "bytecode": "0x608060405234801561001057600080fd5b5061001c60003361004d565b506100477f114e74f6ea3bd819998f78687bfcb11b140da08e9b7d222fa9c1f1ba1f2aa1223361004d565b506100f9565b6000828152602081815260408083206001600160a01b038516845290915281205460ff166100ef576000838152602081815260408083206001600160a01b03861684529091529020805460ff191660011790556100a73390565b6001600160a01b0316826001600160a01b0316847f2f8788117e7eff1d82e926ec794901d17c78024a50270940304540a733656f0d60405160405180910390a45060016100f3565b5060005b92915050565b610f14806101086000396000f3fe608060405234801561001057600080fd5b50600436106100e95760003560e01c80634dbf87cc1161008c57806391d148541161006657806391d148541461020e578063a217fddf14610221578063ca6eec7814610229578063d547741f1461023c57600080fd5b80634dbf87cc146101b95780635e6620d1146101e657806382aefa24146101f957600080fd5b8063248a9ca3116100c8578063248a9ca31461013e578063299d03481461016f5780632f2ff15d1461019357806336568abe146101a657600080fd5b8062629679146100ee57806301ffc9a71461010357806320694db01461012b575b600080fd5b6101016100fc366004610a4e565b61024f565b005b610116610111366004610a70565b610310565b60405190151581526020015b60405180910390f35b610101610139366004610a4e565b610347565b61016161014c366004610a9a565b60009081526020819052604090206001015490565b604051908152602001610122565b61018261017d366004610a9a565b610403565b604051610122959493929190610b03565b6101016101a1366004610b5f565b6105d9565b6101016101b4366004610b5f565b610604565b6101166101c7366004610a9a565b600090815260016020526040902060030154600160a01b900460ff1690565b6101616101f4366004610c30565b61063c565b610161600080516020610ebf83398151915281565b61011661021c366004610b5f565b61077e565b610161600081565b610101610237366004610a9a565b6107a7565b61010161024a366004610b5f565b6108c6565b61025a60003361077e565b6102c15760405162461bcd60e51b815260206004820152602d60248201527f536f6c6f20656c2061646d696e6973747261646f72207075656465207265766f60448201526c31b0b91032b6b4b9b7b932b99760991b60648201526084015b60405180910390fd5b6102d9600080516020610ebf833981519152826108c6565b6040516001600160a01b038216907f95a4c2ae425bb769549aa1a911911ff57c17ae811ae8c8962d0b9746fcb1539790600090a250565b60006001600160e01b03198216637965db0b60e01b148061034157506301ffc9a760e01b6001600160e01b03198316145b92915050565b61035260003361077e565b6103b45760405162461bcd60e51b815260206004820152602d60248201527f536f6c6f20656c2061646d696e6973747261646f72207075656465206173696760448201526c3730b91032b6b4b9b7b932b99760991b60648201526084016102b8565b6103cc600080516020610ebf833981519152826105d9565b6040516001600160a01b038216907f05e7c881d716bee8cb7ed92293133ba156704252439e5c502c277448f04e20c290600090a250565b60016020526000908152604090208054819061041e90610cd5565b80601f016020809104026020016040519081016040528092919081815260200182805461044a90610cd5565b80156104975780601f1061046c57610100808354040283529160200191610497565b820191906000526020600020905b81548152906001019060200180831161047a57829003601f168201915b5050505050908060010180546104ac90610cd5565b80601f01602080910402602001604051908101604052809291908181526020018280546104d890610cd5565b80156105255780601f106104fa57610100808354040283529160200191610525565b820191906000526020600020905b81548152906001019060200180831161050857829003601f168201915b50505050509080600201805461053a90610cd5565b80601f016020809104026020016040519081016040528092919081815260200182805461056690610cd5565b80156105b35780601f10610588576101008083540402835291602001916105b3565b820191906000526020600020905b81548152906001019060200180831161059657829003601f168201915b505050600390930154919250506001600160a01b0381169060ff600160a01b9091041685565b6000828152602081905260409020600101546105f4816108eb565b6105fe83836108f8565b50505050565b6001600160a01b038116331461062d5760405163334bd91960e11b815260040160405180910390fd5b610637828261098a565b505050565b6000600080516020610ebf833981519152610656816108eb565b60008686868660405160200161066f9493929190610d0f565b60408051601f19818403018152828252805160209182012060a0840183528a84528382018a90528383018990526001600160a01b03881660608501526001608085018190526000828152925291902082519193509081906106d09082610dbc565b50602082015160018201906106e59082610dbc565b50604082015160028201906106fa9082610dbc565b506060820151600390910180546080909301511515600160a01b026001600160a81b03199093166001600160a01b039283161792909217909155604051908516907fee1de36c11a172cb074ad178ec6fd447ca52619021aea8eca02ec83f77de10fd9061076c908a908a908a90610e7b565b60405180910390a29695505050505050565b6000918252602082815260408084206001600160a01b0393909316845291905290205460ff1690565b6107b260003361077e565b6108185760405162461bcd60e51b815260206004820152603160248201527f536f6c6f20656c2061646d696e6973747261646f72207075656465207265766f60448201527031b0b91031b932b232b731b4b0b632b99760791b60648201526084016102b8565b600081815260016020526040902060030154600160a01b900460ff166108805760405162461bcd60e51b815260206004820152601f60248201527f4c612063726564656e6369616c207961206573746120696e76616c6964612e0060448201526064016102b8565b600081815260016020526040808220600301805460ff60a01b191690555182917f3cc2375f3fc7711ba27361cde93880f578742f9f050acee766bed662d117ba7291a250565b6000828152602081905260409020600101546108e1816108eb565b6105fe838361098a565b6108f581336109f5565b50565b6000610904838361077e565b610982576000838152602081815260408083206001600160a01b03861684529091529020805460ff1916600117905561093a3390565b6001600160a01b0316826001600160a01b0316847f2f8788117e7eff1d82e926ec794901d17c78024a50270940304540a733656f0d60405160405180910390a4506001610341565b506000610341565b6000610996838361077e565b15610982576000838152602081815260408083206001600160a01b0386168085529252808320805460ff1916905551339286917ff6391f5c32d9c69d2a47ea670b442974b53935d1edc7fd64eb21e047a839171b9190a4506001610341565b6109ff828261077e565b610a2e5760405163e2517d3f60e01b81526001600160a01b0382166004820152602481018390526044016102b8565b5050565b80356001600160a01b0381168114610a4957600080fd5b919050565b600060208284031215610a6057600080fd5b610a6982610a32565b9392505050565b600060208284031215610a8257600080fd5b81356001600160e01b031981168114610a6957600080fd5b600060208284031215610aac57600080fd5b5035919050565b60005b83811015610ace578181015183820152602001610ab6565b50506000910152565b60008151808452610aef816020860160208601610ab3565b601f01601f19169290920160200192915050565b60a081526000610b1660a0830188610ad7565b8281036020840152610b288188610ad7565b90508281036040840152610b3c8187610ad7565b6001600160a01b0395909516606084015250509015156080909101529392505050565b60008060408385031215610b7257600080fd5b82359150610b8260208401610a32565b90509250929050565b634e487b7160e01b600052604160045260246000fd5b600082601f830112610bb257600080fd5b813567ffffffffffffffff811115610bcc57610bcc610b8b565b604051601f8201601f19908116603f0116810167ffffffffffffffff81118282101715610bfb57610bfb610b8b565b604052818152838201602001851015610c1357600080fd5b816020850160208301376000918101602001919091529392505050565b60008060008060808587031215610c4657600080fd5b843567ffffffffffffffff811115610c5d57600080fd5b610c6987828801610ba1565b945050602085013567ffffffffffffffff811115610c8657600080fd5b610c9287828801610ba1565b935050604085013567ffffffffffffffff811115610caf57600080fd5b610cbb87828801610ba1565b925050610cca60608601610a32565b905092959194509250565b600181811c90821680610ce957607f821691505b602082108103610d0957634e487b7160e01b600052602260045260246000fd5b50919050565b60008551610d21818460208a01610ab3565b855190830190610d35818360208a01610ab3565b8551910190610d48818360208901610ab3565b60609490941b6bffffffffffffffffffffffff1916930192835250506014019392505050565b601f82111561063757806000526020600020601f840160051c81016020851015610d955750805b601f840160051c820191505b81811015610db55760008155600101610da1565b5050505050565b815167ffffffffffffffff811115610dd657610dd6610b8b565b610dea81610de48454610cd5565b84610d6e565b6020601f821160018114610e1e5760008315610e065750848201515b600019600385901b1c1916600184901b178455610db5565b600084815260208120601f198516915b82811015610e4e5787850151825560209485019460019092019101610e2e565b5084821015610e6c5786840151600019600387901b60f8161c191681555b50505050600190811b01905550565b606081526000610e8e6060830186610ad7565b8281036020840152610ea08186610ad7565b90508281036040840152610eb48185610ad7565b969550505050505056fe114e74f6ea3bd819998f78687bfcb11b140da08e9b7d222fa9c1f1ba1f2aa122a26469706673582212205d10eb7e98f388ea93237f3b8102172aebf0da002e783a3caab4d5e8cafce06c64736f6c634300081b0033",
  "linkReferences": {},
  "deployedLinkReferences": {}
}