{
  "_format": "hh-sol-artifact-1",
  "contractName": "Torogoz",
  "sourceName": "contracts/torogoz.sol",
  "abi": [
    {
      "inputs": [],
      "stateMutability": "nonpayable",
      "type": "constructor"
    },
    {
      "inputs": [],
      "name": "AccessControlBadConfirmation",
      "type": "error"
    },
    {
      "inputs": [
        {
          "internalType": "address",
          "name": "account",
          "type": "address"
        },
        {
          "internalType": "bytes32",
          "name": "neededRole",
          "type": "bytes32"
        }
      ],
      "name": "AccessControlUnauthorizedAccount",
      "type": "error"
    },
    {
      "inputs": [],
      "name": "ERC721EnumerableForbiddenBatchMint",
      "type": "error"
    },
    {
      "inputs": [
        {
          "internalType": "address",
          "name": "sender",
          "type": "address"
        },
        {
          "internalType": "uint256",
          "name": "tokenId",
          "type": "uint256"
        },
        {
          "internalType": "address",
          "name": "owner",
          "type": "address"
        }
      ],
      "name": "ERC721IncorrectOwner",
      "type": "error"
    },
    {
      "inputs": [
        {
          "internalType": "address",
          "name": "operator",
          "type": "address"
        },
        {
          "internalType": "uint256",
          "name": "tokenId",
          "type": "uint256"
        }
      ],
      "name": "ERC721InsufficientApproval",
      "type": "error"
    },
    {
      "inputs": [
        {
          "internalType": "address",
          "name": "approver",
          "type": "address"
        }
      ],
      "name": "ERC721InvalidApprover",
      "type": "error"
    },
    {
      "inputs": [
        {
          "internalType": "address",
          "name": "operator",
          "type": "address"
        }
      ],
      "name": "ERC721InvalidOperator",
      "type": "error"
    },
    {
      "inputs": [
        {
          "internalType": "address",
          "name": "owner",
          "type": "address"
        }
      ],
      "name": "ERC721InvalidOwner",
      "type": "error"
    },
    {
      "inputs": [
        {
          "internalType": "address",
          "name": "receiver",
          "type": "address"
        }
      ],
      "name": "ERC721InvalidReceiver",
      "type": "error"
    },
    {
      "inputs": [
        {
          "internalType": "address",
          "name": "sender",
          "type": "address"
        }
      ],
      "name": "ERC721InvalidSender",
      "type": "error"
    },
    {
      "inputs": [
        {
          "internalType": "uint256",
          "name": "tokenId",
          "type": "uint256"
        }
      ],
      "name": "ERC721NonexistentToken",
      "type": "error"
    },
    {
      "inputs": [
        {
          "internalType": "address",
          "name": "owner",
          "type": "address"
        },
        {
          "internalType": "uint256",
          "name": "index",
          "type": "uint256"
        }
      ],
      "name": "ERC721OutOfBoundsIndex",
      "type": "error"
    },
    {
      "anonymous": false,
      "inputs": [
        {
          "indexed": true,
          "internalType": "address",
          "name": "owner",
          "type": "address"
        },
        {
          "indexed": true,
          "internalType": "address",
          "name": "approved",
          "type": "address"
        },
        {
          "indexed": true,
          "internalType": "uint256",
          "name": "tokenId",
          "type": "uint256"
        }
      ],
      "name": "Approval",
      "type": "event"
    },
    {
      "anonymous": false,
      "inputs": [
        {
          "indexed": true,
          "internalType": "address",
          "name": "owner",
          "type": "address"
        },
        {
          "indexed": true,
          "internalType": "address",
          "name": "operator",
          "type": "address"
        },
        {
          "indexed": false,
          "internalType": "bool",
          "name": "approved",
          "type": "bool"
        }
      ],
      "name": "ApprovalForAll",
      "type": "event"
    },
    {
      "anonymous": false,
      "inputs": [
        {
          "indexed": true,
          "internalType": "address",
          "name": "recipient",
          "type": "address"
        },
        {
          "indexed": true,
          "internalType": "bytes32",
          "name": "credentialHash",
          "type": "bytes32"
        },
        {
          "indexed": false,
          "internalType": "string",
          "name": "institutionName",
          "type": "string"
        },
        {
          "indexed": false,
          "internalType": "string",
          "name": "courseName",
          "type": "string"
        },
        {
          "indexed": false,
          "internalType": "string",
          "name": "firstName",
          "type": "string"
        },
        {
          "indexed": false,
          "internalType": "string",
          "name": "lastName",
          "type": "string"
        },
        {
          "indexed": false,
          "internalType": "uint256",
          "name": "issueDate",
          "type": "uint256"
        }
      ],
      "name": "CredentialIssued",
      "type": "event"
    },
    {
      "anonymous": false,
      "inputs": [
        {
          "indexed": true,
          "internalType": "bytes32",
          "name": "credentialHash",
          "type": "bytes32"
        }
      ],
      "name": "CredentialRevoked",
      "type": "event"
    },
    {
      "anonymous": false,
      "inputs": [
        {
          "indexed": true,
          "internalType": "address",
          "name": "account",
          "type": "address"
        }
      ],
      "name": "IssuerAdded",
      "type": "event"
    },
    {
      "anonymous": false,
      "inputs": [
        {
          "indexed": true,
          "internalType": "address",
          "name": "account",
          "type": "address"
        }
      ],
      "name": "IssuerRevoked",
      "type": "event"
    },
    {
      "anonymous": false,
      "inputs": [
        {
          "indexed": true,
          "internalType": "bytes32",
          "name": "role",
          "type": "bytes32"
        },
        {
          "indexed": true,
          "internalType": "bytes32",
          "name": "previousAdminRole",
          "type": "bytes32"
        },
        {
          "indexed": true,
          "internalType": "bytes32",
          "name": "newAdminRole",
          "type": "bytes32"
        }
      ],
      "name": "RoleAdminChanged",
      "type": "event"
    },
    {
      "anonymous": false,
      "inputs": [
        {
          "indexed": true,
          "internalType": "bytes32",
          "name": "role",
          "type": "bytes32"
        },
        {
          "indexed": true,
          "internalType": "address",
          "name": "account",
          "type": "address"
        },
        {
          "indexed": true,
          "internalType": "address",
          "name": "sender",
          "type": "address"
        }
      ],
      "name": "RoleGranted",
      "type": "event"
    },
    {
      "anonymous": false,
      "inputs": [
        {
          "indexed": true,
          "internalType": "bytes32",
          "name": "role",
          "type": "bytes32"
        },
        {
          "indexed": true,
          "internalType": "address",
          "name": "account",
          "type": "address"
        },
        {
          "indexed": true,
          "internalType": "address",
          "name": "sender",
          "type": "address"
        }
      ],
      "name": "RoleRevoked",
      "type": "event"
    },
    {
      "anonymous": false,
      "inputs": [
        {
          "indexed": true,
          "internalType": "address",
          "name": "from",
          "type": "address"
        },
        {
          "indexed": true,
          "internalType": "address",
          "name": "to",
          "type": "address"
        },
        {
          "indexed": true,
          "internalType": "uint256",
          "name": "tokenId",
          "type": "uint256"
        }
      ],
      "name": "Transfer",
      "type": "event"
    },
    {
      "inputs": [],
      "name": "DEFAULT_ADMIN_ROLE",
      "outputs": [
        {
          "internalType": "bytes32",
          "name": "",
          "type": "bytes32"
        }
      ],
      "stateMutability": "view",
      "type": "function"
    },
    {
      "inputs": [],
      "name": "ISSUER_ROLE",
      "outputs": [
        {
          "internalType": "bytes32",
          "name": "",
          "type": "bytes32"
        }
      ],
      "stateMutability": "view",
      "type": "function"
    },
    {
      "inputs": [
        {
          "internalType": "address",
          "name": "account",
          "type": "address"
        }
      ],
      "name": "addIssuer",
      "outputs": [],
      "stateMutability": "nonpayable",
      "type": "function"
    },
    {
      "inputs": [
        {
          "internalType": "address",
          "name": "to",
          "type": "address"
        },
        {
          "internalType": "uint256",
          "name": "tokenId",
          "type": "uint256"
        }
      ],
      "name": "approve",
      "outputs": [],
      "stateMutability": "nonpayable",
      "type": "function"
    },
    {
      "inputs": [
        {
          "internalType": "address",
          "name": "owner",
          "type": "address"
        }
      ],
      "name": "balanceOf",
      "outputs": [
        {
          "internalType": "uint256",
          "name": "",
          "type": "uint256"
        }
      ],
      "stateMutability": "view",
      "type": "function"
    },
    {
      "inputs": [
        {
          "internalType": "bytes32",
          "name": "",
          "type": "bytes32"
        }
      ],
      "name": "credentials",
      "outputs": [
        {
          "internalType": "string",
          "name": "institutionName",
          "type": "string"
        },
        {
          "internalType": "string",
          "name": "courseName",
          "type": "string"
        },
        {
          "internalType": "string",
          "name": "firstName",
          "type": "string"
        },
        {
          "internalType": "string",
          "name": "lastName",
          "type": "string"
        },
        {
          "internalType": "uint256",
          "name": "issueDate",
          "type": "uint256"
        },
        {
          "internalType": "address",
          "name": "recipient",
          "type": "address"
        },
        {
          "internalType": "bool",
          "name": "valid",
          "type": "bool"
        }
      ],
      "stateMutability": "view",
      "type": "function"
    },
    {
      "inputs": [
        {
          "internalType": "uint256",
          "name": "tokenId",
          "type": "uint256"
        }
      ],
      "name": "getApproved",
      "outputs": [
        {
          "internalType": "address",
          "name": "",
          "type": "address"
        }
      ],
      "stateMutability": "view",
      "type": "function"
    },
    {
      "inputs": [
        {
          "internalType": "bytes32",
          "name": "_credentialHash",
          "type": "bytes32"
        }
      ],
      "name": "getCredentialDetails",
      "outputs": [
        {
          "internalType": "string",
          "name": "",
          "type": "string"
        },
        {
          "internalType": "string",
          "name": "",
          "type": "string"
        },
        {
          "internalType": "string",
          "name": "",
          "type": "string"
        },
        {
          "internalType": "string",
          "name": "",
          "type": "string"
        },
        {
          "internalType": "uint256",
          "name": "",
          "type": "uint256"
        },
        {
          "internalType": "address",
          "name": "",
          "type": "address"
        },
        {
          "internalType": "bool",
          "name": "",
          "type": "bool"
        }
      ],
      "stateMutability": "view",
      "type": "function"
    },
    {
      "inputs": [
        {
          "internalType": "address",
          "name": "user",
          "type": "address"
        }
      ],
      "name": "getCredentialsByUser",
      "outputs": [
        {
          "internalType": "bytes32[]",
          "name": "",
          "type": "bytes32[]"
        }
      ],
      "stateMutability": "view",
      "type": "function"
    },
    {
      "inputs": [
        {
          "internalType": "bytes32",
          "name": "role",
          "type": "bytes32"
        }
      ],
      "name": "getRoleAdmin",
      "outputs": [
        {
          "internalType": "bytes32",
          "name": "",
          "type": "bytes32"
        }
      ],
      "stateMutability": "view",
      "type": "function"
    },
    {
      "inputs": [
        {
          "internalType": "bytes32",
          "name": "role",
          "type": "bytes32"
        },
        {
          "internalType": "address",
          "name": "account",
          "type": "address"
        }
      ],
      "name": "grantRole",
      "outputs": [],
      "stateMutability": "nonpayable",
      "type": "function"
    },
    {
      "inputs": [
        {
          "internalType": "bytes32",
          "name": "role",
          "type": "bytes32"
        },
        {
          "internalType": "address",
          "name": "account",
          "type": "address"
        }
      ],
      "name": "hasRole",
      "outputs": [
        {
          "internalType": "bool",
          "name": "",
          "type": "bool"
        }
      ],
      "stateMutability": "view",
      "type": "function"
    },
    {
      "inputs": [
        {
          "internalType": "address",
          "name": "owner",
          "type": "address"
        },
        {
          "internalType": "address",
          "name": "operator",
          "type": "address"
        }
      ],
      "name": "isApprovedForAll",
      "outputs": [
        {
          "internalType": "bool",
          "name": "",
          "type": "bool"
        }
      ],
      "stateMutability": "view",
      "type": "function"
    },
    {
      "inputs": [
        {
          "internalType": "string",
          "name": "_institutionName",
          "type": "string"
        },
        {
          "internalType": "string",
          "name": "_courseName",
          "type": "string"
        },
        {
          "internalType": "string",
          "name": "_firstName",
          "type": "string"
        },
        {
          "internalType": "string",
          "name": "_lastName",
          "type": "string"
        },
        {
          "internalType": "address",
          "name": "_recipient",
          "type": "address"
        }
      ],
      "name": "issueCredential",
      "outputs": [
        {
          "internalType": "bytes32",
          "name": "",
          "type": "bytes32"
        }
      ],
      "stateMutability": "nonpayable",
      "type": "function"
    },
    {
      "inputs": [],
      "name": "name",
      "outputs": [
        {
          "internalType": "string",
          "name": "",
          "type": "string"
        }
      ],
      "stateMutability": "view",
      "type": "function"
    },
    {
      "inputs": [
        {
          "internalType": "uint256",
          "name": "tokenId",
          "type": "uint256"
        }
      ],
      "name": "ownerOf",
      "outputs": [
        {
          "internalType": "address",
          "name": "",
          "type": "address"
        }
      ],
      "stateMutability": "view",
      "type": "function"
    },
    {
      "inputs": [
        {
          "internalType": "bytes32",
          "name": "role",
          "type": "bytes32"
        },
        {
          "internalType": "address",
          "name": "callerConfirmation",
          "type": "address"
        }
      ],
      "name": "renounceRole",
      "outputs": [],
      "stateMutability": "nonpayable",
      "type": "function"
    },
    {
      "inputs": [
        {
          "internalType": "bytes32",
          "name": "_credentialHash",
          "type": "bytes32"
        }
      ],
      "name": "revokeCredential",
      "outputs": [],
      "stateMutability": "nonpayable",
      "type": "function"
    },
    {
      "inputs": [
        {
          "internalType": "address",
          "name": "account",
          "type": "address"
        }
      ],
      "name": "revokeIssuer",
      "outputs": [],
      "stateMutability": "nonpayable",
      "type": "function"
    },
    {
      "inputs": [
        {
          "internalType": "bytes32",
          "name": "role",
          "type": "bytes32"
        },
        {
          "internalType": "address",
          "name": "account",
          "type": "address"
        }
      ],
      "name": "revokeRole",
      "outputs": [],
      "stateMutability": "nonpayable",
      "type": "function"
    },
    {
      "inputs": [
        {
          "internalType": "address",
          "name": "from",
          "type": "address"
        },
        {
          "internalType": "address",
          "name": "to",
          "type": "address"
        },
        {
          "internalType": "uint256",
          "name": "tokenId",
          "type": "uint256"
        }
      ],
      "name": "safeTransferFrom",
      "outputs": [],
      "stateMutability": "nonpayable",
      "type": "function"
    },
    {
      "inputs": [
        {
          "internalType": "address",
          "name": "from",
          "type": "address"
        },
        {
          "internalType": "address",
          "name": "to",
          "type": "address"
        },
        {
          "internalType": "uint256",
          "name": "tokenId",
          "type": "uint256"
        },
        {
          "internalType": "bytes",
          "name": "data",
          "type": "bytes"
        }
      ],
      "name": "safeTransferFrom",
      "outputs": [],
      "stateMutability": "nonpayable",
      "type": "function"
    },
    {
      "inputs": [
        {
          "internalType": "address",
          "name": "operator",
          "type": "address"
        },
        {
          "internalType": "bool",
          "name": "approved",
          "type": "bool"
        }
      ],
      "name": "setApprovalForAll",
      "outputs": [],
      "stateMutability": "nonpayable",
      "type": "function"
    },
    {
      "inputs": [
        {
          "internalType": "bytes4",
          "name": "interfaceId",
          "type": "bytes4"
        }
      ],
      "name": "supportsInterface",
      "outputs": [
        {
          "internalType": "bool",
          "name": "",
          "type": "bool"
        }
      ],
      "stateMutability": "view",
      "type": "function"
    },
    {
      "inputs": [],
      "name": "symbol",
      "outputs": [
        {
          "internalType": "string",
          "name": "",
          "type": "string"
        }
      ],
      "stateMutability": "view",
      "type": "function"
    },
    {
      "inputs": [
        {
          "internalType": "uint256",
          "name": "index",
          "type": "uint256"
        }
      ],
      "name": "tokenByIndex",
      "outputs": [
        {
          "internalType": "uint256",
          "name": "",
          "type": "uint256"
        }
      ],
      "stateMutability": "view",
      "type": "function"
    },
    {
      "inputs": [
        {
          "internalType": "address",
          "name": "owner",
          "type": "address"
        },
        {
          "internalType": "uint256",
          "name": "index",
          "type": "uint256"
        }
      ],
      "name": "tokenOfOwnerByIndex",
      "outputs": [
        {
          "internalType": "uint256",
          "name": "",
          "type": "uint256"
        }
      ],
      "stateMutability": "view",
      "type": "function"
    },
    {
      "inputs": [
        {
          "internalType": "uint256",
          "name": "tokenId",
          "type": "uint256"
        }
      ],
      "name": "tokenURI",
      "outputs": [
        {
          "internalType": "string",
          "name": "",
          "type": "string"
        }
      ],
      "stateMutability": "view",
      "type": "function"
    },
    {
      "inputs": [],
      "name": "totalSupply",
      "outputs": [
        {
          "internalType": "uint256",
          "name": "",
          "type": "uint256"
        }
      ],
      "stateMutability": "view",
      "type": "function"
    },
    {
      "inputs": [
        {
          "internalType": "address",
          "name": "from",
          "type": "address"
        },
        {
          "internalType": "address",
          "name": "to",
          "type": "address"
        },
        {
          "internalType": "uint256",
          "name": "tokenId",
          "type": "uint256"
        }
      ],
      "name": "transferFrom",
      "outputs": [],
      "stateMutability": "nonpayable",
      "type": "function"
    },
    {
      "inputs": [
        {
          "internalType": "bytes32",
          "name": "_credentialHash",
          "type": "bytes32"
        }
      ],
      "name": "verifyCredential",
      "outputs": [
        {
          "internalType": "bool",
          "name": "",
          "type": "bool"
        }
      ],
      "stateMutability": "view",
      "type": "function"
    }
  ],
  "bytecode": "0x608060405234801561001057600080fd5b5060405180604001604052806011815260200170151bdc9bd9dbde90dc9959195b9d1a585b607a1b81525060405180604001604052806004815260200163544f524360e01b81525081600190816100679190610200565b5060026100748282610200565b50610084915060009050336100b5565b506100af7f114e74f6ea3bd819998f78687bfcb11b140da08e9b7d222fa9c1f1ba1f2aa122336100b5565b506102be565b6000828152602081815260408083206001600160a01b038516845290915281205460ff16610157576000838152602081815260408083206001600160a01b03861684529091529020805460ff1916600117905561010f3390565b6001600160a01b0316826001600160a01b0316847f2f8788117e7eff1d82e926ec794901d17c78024a50270940304540a733656f0d60405160405180910390a450600161015b565b5060005b92915050565b634e487b7160e01b600052604160045260246000fd5b600181811c9082168061018b57607f821691505b6020821081036101ab57634e487b7160e01b600052602260045260246000fd5b50919050565b601f8211156101fb57806000526020600020601f840160051c810160208510156101d85750805b601f840160051c820191505b818110156101f857600081556001016101e4565b50505b505050565b81516001600160401b0381111561021957610219610161565b61022d816102278454610177565b846101b1565b6020601f82116001811461026157600083156102495750848201515b600019600385901b1c1916600184901b1784556101f8565b600084815260208120601f198516915b828110156102915787850151825560209485019460019092019101610271565b50848210156102af5786840151600019600387901b60f8161c191681555b50505050600190811b01905550565b6125a3806102cd6000396000f3fe608060405234801561001057600080fd5b50600436106101e45760003560e01c80634f6ccce71161010f578063b88d4fde116100a2578063d547741f11610071578063d547741f14610443578063e715ce5d14610456578063e985e9c514610469578063f2e33f851461047c57600080fd5b8063b88d4fde146103f7578063c47cdb9f1461040a578063c87b56dd1461041d578063ca6eec781461043057600080fd5b806391d14854116100de57806391d14854146103c157806395d89b41146103d4578063a217fddf146103dc578063a22cb465146103e457600080fd5b80634f6ccce7146103735780636352211e1461038657806370a082311461039957806382aefa24146103ac57600080fd5b806323b872dd116101875780632f745c59116101565780632f745c591461030d57806336568abe1461032057806342842e0e146103335780634dbf87cc1461034657600080fd5b806323b872dd1461029e578063248a9ca3146102b1578063299d0348146102d45780632f2ff15d146102fa57600080fd5b8063081812fc116101c3578063081812fc1461023b578063095ea7b31461026657806318160ddd1461027957806320694db01461028b57600080fd5b8062629679146101e957806301ffc9a7146101fe57806306fdde0314610226575b600080fd5b6101fc6101f7366004611de8565b61049c565b005b61021161020c366004611e19565b61055d565b60405190151581526020015b60405180910390f35b61022e61056e565b60405161021d9190611e86565b61024e610249366004611e99565b610600565b6040516001600160a01b03909116815260200161021d565b6101fc610274366004611eb2565b610629565b6009545b60405190815260200161021d565b6101fc610299366004611de8565b610638565b6101fc6102ac366004611edc565b6106f4565b61027d6102bf366004611e99565b60009081526020819052604090206001015490565b6102e76102e2366004611e99565b61077f565b60405161021d9796959493929190611f19565b6101fc610308366004611f91565b6109e8565b61027d61031b366004611eb2565b610a0d565b6101fc61032e366004611f91565b610a72565b6101fc610341366004611edc565b610aaa565b610211610354366004611e99565b6000908152600b6020526040902060050154600160a01b900460ff1690565b61027d610381366004611e99565b610ac5565b61024e610394366004611e99565b610b1e565b61027d6103a7366004611de8565b610b29565b61027d60008051602061254e83398151915281565b6102116103cf366004611f91565b610b71565b61022e610b9a565b61027d600081565b6101fc6103f2366004611fbd565b610ba9565b6101fc610405366004612089565b610bb4565b61027d610418366004612125565b610bcc565b61022e61042b366004611e99565b610d7e565b6101fc61043e366004611e99565b610df3565b6101fc610451366004611f91565b610f19565b6102e7610464366004611e99565b610f3e565b6102116104773660046121f6565b61121f565b61048f61048a366004611de8565b61124d565b60405161021d9190612220565b6104a7600033610b71565b61050e5760405162461bcd60e51b815260206004820152602d60248201527f536f6c6f20656c2061646d696e6973747261646f72207075656465207265766f60448201526c31b0b91032b6b4b9b7b932b99760991b60648201526084015b60405180910390fd5b61052660008051602061254e83398151915282610f19565b6040516001600160a01b038216907f95a4c2ae425bb769549aa1a911911ff57c17ae811ae8c8962d0b9746fcb1539790600090a250565b6000610568826112b9565b92915050565b60606001805461057d90612263565b80601f01602080910402602001604051908101604052809291908181526020018280546105a990612263565b80156105f65780601f106105cb576101008083540402835291602001916105f6565b820191906000526020600020905b8154815290600101906020018083116105d957829003601f168201915b5050505050905090565b600061060b826112de565b506000828152600560205260409020546001600160a01b0316610568565b610634828233611317565b5050565b610643600033610b71565b6106a55760405162461bcd60e51b815260206004820152602d60248201527f536f6c6f20656c2061646d696e6973747261646f72207075656465206173696760448201526c3730b91032b6b4b9b7b932b99760991b6064820152608401610505565b6106bd60008051602061254e833981519152826109e8565b6040516001600160a01b038216907f05e7c881d716bee8cb7ed92293133ba156704252439e5c502c277448f04e20c290600090a250565b6001600160a01b03821661071e57604051633250574960e11b815260006004820152602401610505565b600061072b838333611324565b9050836001600160a01b0316816001600160a01b031614610779576040516364283d7b60e01b81526001600160a01b0380861660048301526024820184905282166044820152606401610505565b50505050565b600b6020526000908152604090208054819061079a90612263565b80601f01602080910402602001604051908101604052809291908181526020018280546107c690612263565b80156108135780601f106107e857610100808354040283529160200191610813565b820191906000526020600020905b8154815290600101906020018083116107f657829003601f168201915b50505050509080600101805461082890612263565b80601f016020809104026020016040519081016040528092919081815260200182805461085490612263565b80156108a15780601f10610876576101008083540402835291602001916108a1565b820191906000526020600020905b81548152906001019060200180831161088457829003601f168201915b5050505050908060020180546108b690612263565b80601f01602080910402602001604051908101604052809291908181526020018280546108e290612263565b801561092f5780601f106109045761010080835404028352916020019161092f565b820191906000526020600020905b81548152906001019060200180831161091257829003601f168201915b50505050509080600301805461094490612263565b80601f016020809104026020016040519081016040528092919081815260200182805461097090612263565b80156109bd5780601f10610992576101008083540402835291602001916109bd565b820191906000526020600020905b8154815290600101906020018083116109a057829003601f168201915b5050505060048301546005909301549192916001600160a01b0381169150600160a01b900460ff1687565b600082815260208190526040902060010154610a03816113f9565b6107798383611406565b6000610a1883610b29565b8210610a495760405163295f44f760e21b81526001600160a01b038416600482015260248101839052604401610505565b506001600160a01b03919091166000908152600760209081526040808320938352929052205490565b6001600160a01b0381163314610a9b5760405163334bd91960e11b815260040160405180910390fd5b610aa58282611498565b505050565b610aa583838360405180602001604052806000815250610bb4565b6000610ad060095490565b8210610af95760405163295f44f760e21b81526000600482015260248101839052604401610505565b60098281548110610b0c57610b0c61229d565b90600052602060002001549050919050565b6000610568826112de565b60006001600160a01b038216610b55576040516322718ad960e21b815260006004820152602401610505565b506001600160a01b031660009081526004602052604090205490565b6000918252602082815260408084206001600160a01b0393909316845291905290205460ff1690565b60606002805461057d90612263565b610634338383611503565b610bbf8484846106f4565b61077933858585856115a2565b600060008051602061254e833981519152610be6816113f9565b6040514290600090610c06908a908a908a908a9087908b906020016122b3565b60408051601f19818403018152828252805160209182012060e0840183528c84528382018c90528383018b9052606084018a9052608084018690526001600160a01b03891660a0850152600160c08501526000818152600b9092529190208251919350908190610c76908261236e565b5060208201516001820190610c8b908261236e565b5060408201516002820190610ca0908261236e565b5060608201516003820190610cb5908261236e565b506080820151600482015560a08201516005909101805460c0909301511515600160a01b026001600160a81b03199093166001600160a01b03928316179290921790915585166000908152600c602090815260408220805460018101825590835291200181905580610d2786826116cd565b81866001600160a01b03167f16c9e71a4c4f5ae03f764beebe9081d2f3bfbf7353c8d70066ab52b0bc2bf8ed8c8c8c8c89604051610d6995949392919061242d565b60405180910390a35098975050505050505050565b6060610d89826112de565b506000610da160408051602081019091526000815290565b90506000815111610dc15760405180602001604052806000815250610dec565b80610dcb84611732565b604051602001610ddc92919061248d565b6040516020818303038152906040525b9392505050565b610dfe600033610b71565b610e645760405162461bcd60e51b815260206004820152603160248201527f536f6c6f20656c2061646d696e6973747261646f72207075656465207265766f60448201527031b0b91031b932b232b731b4b0b632b99760791b6064820152608401610505565b6000818152600b6020526040902060050154600160a01b900460ff16610ecc5760405162461bcd60e51b815260206004820152601f60248201527f4c612063726564656e6369616c207961206573746120696e76616c6964612e006044820152606401610505565b6000818152600b6020526040808220600501805460ff60a01b191690555182917f3cc2375f3fc7711ba27361cde93880f578742f9f050acee766bed662d117ba7291a280610634816117c5565b600082815260208190526040902060010154610f34816113f9565b6107798383611498565b606080606080600080600080600b60008a81526020019081526020016000206040518060e0016040529081600082018054610f7890612263565b80601f0160208091040260200160405190810160405280929190818152602001828054610fa490612263565b8015610ff15780601f10610fc657610100808354040283529160200191610ff1565b820191906000526020600020905b815481529060010190602001808311610fd457829003601f168201915b5050505050815260200160018201805461100a90612263565b80601f016020809104026020016040519081016040528092919081815260200182805461103690612263565b80156110835780601f1061105857610100808354040283529160200191611083565b820191906000526020600020905b81548152906001019060200180831161106657829003601f168201915b5050505050815260200160028201805461109c90612263565b80601f01602080910402602001604051908101604052809291908181526020018280546110c890612263565b80156111155780601f106110ea57610100808354040283529160200191611115565b820191906000526020600020905b8154815290600101906020018083116110f857829003601f168201915b5050505050815260200160038201805461112e90612263565b80601f016020809104026020016040519081016040528092919081815260200182805461115a90612263565b80156111a75780601f1061117c576101008083540402835291602001916111a7565b820191906000526020600020905b81548152906001019060200180831161118a57829003601f168201915b505050918352505060048201546020808301919091526005909201546001600160a01b038116604080840191909152600160a01b90910460ff1615156060928301528351928401519084015191840151608085015160a086015160c090960151949f929e50929c509a50909850919650945092505050565b6001600160a01b03918216600090815260066020908152604080832093909416825291909152205460ff1690565b6001600160a01b0381166000908152600c60209081526040918290208054835181840281018401909452808452606093928301828280156112ad57602002820191906000526020600020905b815481526020019060010190808311611299575b50505050509050919050565b60006001600160e01b0319821663780e9d6360e01b1480610568575061056882611800565b6000818152600360205260408120546001600160a01b03168061056857604051637e27328960e01b815260048101849052602401610505565b610aa58383836001611840565b600080611332858585611946565b90506001600160a01b03811661138f5761138a84600980546000838152600a60205260408120829055600182018355919091527f6e1540171b6c0c960b71a7020d9f60077f6af931a8bbf590da0223dacf75c7af0155565b6113b2565b846001600160a01b0316816001600160a01b0316146113b2576113b28185611a3f565b6001600160a01b0385166113ce576113c984611ac0565b6113f1565b846001600160a01b0316816001600160a01b0316146113f1576113f18585611b6f565b949350505050565b6114038133611bbf565b50565b60006114128383610b71565b611490576000838152602081815260408083206001600160a01b03861684529091529020805460ff191660011790556114483390565b6001600160a01b0316826001600160a01b0316847f2f8788117e7eff1d82e926ec794901d17c78024a50270940304540a733656f0d60405160405180910390a4506001610568565b506000610568565b60006114a48383610b71565b15611490576000838152602081815260408083206001600160a01b0386168085529252808320805460ff1916905551339286917ff6391f5c32d9c69d2a47ea670b442974b53935d1edc7fd64eb21e047a839171b9190a4506001610568565b6001600160a01b03821661153557604051630b61174360e31b81526001600160a01b0383166004820152602401610505565b6001600160a01b03838116600081815260066020908152604080832094871680845294825291829020805460ff191686151590811790915591519182527f17307eab39ab6107e8899845ad3d59bd9653f200f220920489ca2b5937696c31910160405180910390a3505050565b6001600160a01b0383163b156116c657604051630a85bd0160e11b81526001600160a01b0384169063150b7a02906115e49088908890879087906004016124bc565b6020604051808303816000875af192505050801561161f575060408051601f3d908101601f1916820190925261161c918101906124f9565b60015b611688573d80801561164d576040519150601f19603f3d011682016040523d82523d6000602084013e611652565b606091505b50805160000361168057604051633250574960e11b81526001600160a01b0385166004820152602401610505565b805181602001fd5b6001600160e01b03198116630a85bd0160e11b146116c457604051633250574960e11b81526001600160a01b0385166004820152602401610505565b505b5050505050565b6001600160a01b0382166116f757604051633250574960e11b815260006004820152602401610505565b600061170583836000611324565b90506001600160a01b03811615610aa5576040516339e3563760e11b815260006004820152602401610505565b6060600061173f83611bf8565b600101905060008167ffffffffffffffff81111561175f5761175f611ff9565b6040519080825280601f01601f191660200182016040528015611789576020820181803683370190505b5090508181016020015b600019016f181899199a1a9b1b9c1cb0b131b232b360811b600a86061a8153600a850494508461179357509392505050565b60006117d46000836000611324565b90506001600160a01b03811661063457604051637e27328960e01b815260048101839052602401610505565b60006001600160e01b031982166380ac58cd60e01b148061183157506001600160e01b03198216635b5e139f60e01b145b80610568575061056882611cd0565b808061185457506001600160a01b03821615155b15611916576000611864846112de565b90506001600160a01b038316158015906118905750826001600160a01b0316816001600160a01b031614155b80156118a357506118a1818461121f565b155b156118cc5760405163a9fbf51f60e01b81526001600160a01b0384166004820152602401610505565b81156119145783856001600160a01b0316826001600160a01b03167f8c5be1e5ebec7d5bd14f71427d1e84f3dd0314c0f7b2291e5b200ac8c7c3b92560405160405180910390a45b505b5050600090815260056020526040902080546001600160a01b0319166001600160a01b0392909216919091179055565b6000828152600360205260408120546001600160a01b039081169083161561197357611973818486611d05565b6001600160a01b038116156119b157611990600085600080611840565b6001600160a01b038116600090815260046020526040902080546000190190555b6001600160a01b038516156119e0576001600160a01b0385166000908152600460205260409020805460010190555b60008481526003602052604080822080546001600160a01b0319166001600160a01b0389811691821790925591518793918516917fddf252ad1be2c89b69c2b068fc378daa952ba7f163c4a11628f55a4df523b3ef91a4949350505050565b6000611a4a83610b29565b6000838152600860209081526040808320546001600160a01b0388168452600790925290912091925090818314611aa157600083815260208281526040808320548584528184208190558352600890915290208290555b6000938452600860209081526040808620869055938552525081205550565b600954600090611ad290600190612516565b6000838152600a602052604081205460098054939450909284908110611afa57611afa61229d565b906000526020600020015490508060098381548110611b1b57611b1b61229d565b6000918252602080832090910192909255828152600a90915260408082208490558582528120556009805480611b5357611b53612537565b6001900381819060005260206000200160009055905550505050565b60006001611b7c84610b29565b611b869190612516565b6001600160a01b039093166000908152600760209081526040808320868452825280832085905593825260089052919091209190915550565b611bc98282610b71565b6106345760405163e2517d3f60e01b81526001600160a01b038216600482015260248101839052604401610505565b60008072184f03e93ff9f4daa797ed6e38ed64bf6a1f0160401b8310611c375772184f03e93ff9f4daa797ed6e38ed64bf6a1f0160401b830492506040015b6d04ee2d6d415b85acef81000000008310611c63576d04ee2d6d415b85acef8100000000830492506020015b662386f26fc100008310611c8157662386f26fc10000830492506010015b6305f5e1008310611c99576305f5e100830492506008015b6127108310611cad57612710830492506004015b60648310611cbf576064830492506002015b600a83106105685760010192915050565b60006001600160e01b03198216637965db0b60e01b148061056857506301ffc9a760e01b6001600160e01b0319831614610568565b611d10838383611d69565b610aa5576001600160a01b038316611d3e57604051637e27328960e01b815260048101829052602401610505565b60405163177e802f60e01b81526001600160a01b038316600482015260248101829052604401610505565b60006001600160a01b038316158015906113f15750826001600160a01b0316846001600160a01b03161480611da35750611da3848461121f565b806113f15750506000908152600560205260409020546001600160a01b03908116911614919050565b80356001600160a01b0381168114611de357600080fd5b919050565b600060208284031215611dfa57600080fd5b610dec82611dcc565b6001600160e01b03198116811461140357600080fd5b600060208284031215611e2b57600080fd5b8135610dec81611e03565b60005b83811015611e51578181015183820152602001611e39565b50506000910152565b60008151808452611e72816020860160208601611e36565b601f01601f19169290920160200192915050565b602081526000610dec6020830184611e5a565b600060208284031215611eab57600080fd5b5035919050565b60008060408385031215611ec557600080fd5b611ece83611dcc565b946020939093013593505050565b600080600060608486031215611ef157600080fd5b611efa84611dcc565b9250611f0860208501611dcc565b929592945050506040919091013590565b60e081526000611f2c60e083018a611e5a565b8281036020840152611f3e818a611e5a565b90508281036040840152611f528189611e5a565b90508281036060840152611f668188611e5a565b608084019690965250506001600160a01b039290921660a0830152151560c090910152949350505050565b60008060408385031215611fa457600080fd5b82359150611fb460208401611dcc565b90509250929050565b60008060408385031215611fd057600080fd5b611fd983611dcc565b915060208301358015158114611fee57600080fd5b809150509250929050565b634e487b7160e01b600052604160045260246000fd5b60008067ffffffffffffffff84111561202a5761202a611ff9565b50604051601f19601f85018116603f0116810181811067ffffffffffffffff8211171561205957612059611ff9565b60405283815290508082840185101561207157600080fd5b83836020830137600060208583010152509392505050565b6000806000806080858703121561209f57600080fd5b6120a885611dcc565b93506120b660208601611dcc565b925060408501359150606085013567ffffffffffffffff8111156120d957600080fd5b8501601f810187136120ea57600080fd5b6120f98782356020840161200f565b91505092959194509250565b600082601f83011261211657600080fd5b610dec8383356020850161200f565b600080600080600060a0868803121561213d57600080fd5b853567ffffffffffffffff81111561215457600080fd5b61216088828901612105565b955050602086013567ffffffffffffffff81111561217d57600080fd5b61218988828901612105565b945050604086013567ffffffffffffffff8111156121a657600080fd5b6121b288828901612105565b935050606086013567ffffffffffffffff8111156121cf57600080fd5b6121db88828901612105565b9250506121ea60808701611dcc565b90509295509295909350565b6000806040838503121561220957600080fd5b61221283611dcc565b9150611fb460208401611dcc565b602080825282518282018190526000918401906040840190835b8181101561225857835183526020938401939092019160010161223a565b509095945050505050565b600181811c9082168061227757607f821691505b60208210810361229757634e487b7160e01b600052602260045260246000fd5b50919050565b634e487b7160e01b600052603260045260246000fd5b600087516122c5818460208c01611e36565b8751908301906122d9818360208c01611e36565b87519101906122ec818360208b01611e36565b86519101906122ff818360208a01611e36565b01938452505060601b6bffffffffffffffffffffffff19166020820152603401949350505050565b601f821115610aa557806000526020600020601f840160051c8101602085101561234e5750805b601f840160051c820191505b818110156116c6576000815560010161235a565b815167ffffffffffffffff81111561238857612388611ff9565b61239c816123968454612263565b84612327565b6020601f8211600181146123d057600083156123b85750848201515b600019600385901b1c1916600184901b1784556116c6565b600084815260208120601f198516915b8281101561240057878501518255602094850194600190920191016123e0565b508482101561241e5786840151600019600387901b60f8161c191681555b50505050600190811b01905550565b60a08152600061244060a0830188611e5a565b82810360208401526124528188611e5a565b905082810360408401526124668187611e5a565b9050828103606084015261247a8186611e5a565b9150508260808301529695505050505050565b6000835161249f818460208801611e36565b8351908301906124b3818360208801611e36565b01949350505050565b6001600160a01b03858116825284166020820152604081018390526080606082018190526000906124ef90830184611e5a565b9695505050505050565b60006020828403121561250b57600080fd5b8151610dec81611e03565b8181038181111561056857634e487b7160e01b600052601160045260246000fd5b634e487b7160e01b600052603160045260246000fdfe114e74f6ea3bd819998f78687bfcb11b140da08e9b7d222fa9c1f1ba1f2aa122a26469706673582212205d0b2b987e154afa7d498c6d5b80db76f290e48005fea26b151eed05d741cc9564736f6c634300081c0033",
  "linkReferences": {},
  "deployedLinkReferences": {}
}